:03000000020EEC01
:0C0EEC00787FE4F6D8FD758140020F33DA
:100C8600536574416C61726D323A686F75720053C8
:100C96006574416C61726D313A686F75720020201F
:100CA60000536574416C61726D323A6D696E75748C
:100CB6006500536574416C61726D313A6D696E758C
:100CC60074650053657454696D653A686F75720092
:100CD60053657454696D653A4D696E757465005354
:100CE600657454696D653A5365636F6E6400536548
:100CF6007454696D653A7965617200202020200080
:100D060053657454696D653A6D6F6E74680053650A
:100D16007454696D653A6461790053657454696DFC
:100D2600653A7765656B005365744D757369633A0B
:100D360000736F6E67626965007469616E6B6F6ED2
:100D4600677A68696368656E670077616E670041F8
:100D560031004132000102030305050608090910A6
:0D0D660012011408120104010110180125EA
:101127000217000002090000021200000215000069
:10113700020B0001010F00010800011A06010E0051
:10114700010D12011C00011000011100011B00011B
:02115700140082
:10137500C2A47FC87E001211DBD2A47FF47E0102D5
:0213850011DB7A
:02116E008F1DD3
:10117000E51D70047F188002AF1D8F1DE51DC3940F
:101180000650047F6480027F008F1FE4F51EE51E79
:10119000C3951D501CC2A47F647E001211DBD2A433
:1011A00012135F120B97AF1F7E001211DB051E801A
:0111B000DD61
:0111B100221B
:10130600D3EF9400EE940040147DC8D3ED6480942E
:0D1316008040031D80F5EF1F70E61E80E390
:0113230022A7
:061291007BFF7A0C79A43A
:101297008B208A218922AB20AA21A922120F78FF4D
:1012A70060101213BB74012522F522E43521F521C4
:0312B70080E422AE
:100617008F208D218B2230A2030206C77F0A7E001E
:090627001211DB30A2030206C728
:10063000E5207004AF1A8002AF0E7523008F24E509
:1006400024540FC39409E49400E524500424018049
:10065000022407FFE43523FE8E238F24E520701B40
:10066000E5212401FFE433FEC3E5249FE5239E50EA
:1006700004AF2480027F008F1A8019E5212401FF36
:10068000E433FEC3E5249FE5239E5004AF2480029B
:100690007F008F0EE52260057508018003750F014C
:1006A000121375C3E5169432E5159400501420A278
:1006B000117F0A7E001211DB0516E51670E505159F
:0706C00080E1E4F515F516D9
:1006C70030A30302075A7F0A7E001211DB30A3030F
:0306D70002075ABD
:1006DA00E5207004AF1A8002AF0E7523008F24E55F
:1006EA00244523602CE524540FD39400E49400E5B8
:1006FA0024400424FF800224F9FFE52334FFFE8E00
:10070A00238F24E520700585241A801185240E8004
:10071A000CE520700585211A800385210EE52260EB
:10072A00057508018003750F01121375C3E5169448
:10073A0032E5159400501420A3117F0A7E0012118D
:10074A00DB0516E51670E5051580E1E4F515F516E5
:01075A00227C
:1009A5008F1D8D1E8B1F20A2787F0A7E001211DB02
:0309B50020A26E0F
:1009B800AF1D1213C77520008F21E521540FC39472
:1009C80009E49400E5215004240180022407FFE48F
:1009D8003520FE8E208F21E51E2401FFE433FEC35F
:1009E800E5219FE5209E5006AF21AD078004AF1F8B
:1009F800AD07AF1D121342121375C3E5169432E505
:100A0800159400501420A2117F0A7E001211DB05F4
:0E0A180016E51670E5051580E1E4F515F516F6
:0D0A260020A3767F0A7E001211DB20A36C56
:100A3300AF1D1213C77520008F21E5214520602EBD
:100A4300E521540FD39400E49400E521400424FFEE
:100A5300800224F9FFE52034FFFE8E208F21E51F5D
:100A63006008E521452070028004AD218002AD1E9F
:100A7300AF1D121342121375C3E5169432E5159494
:100A830000501420A3117F0A7E001211DB0516E526
:0C0A93001670E5051580E1E4F515F51678
:010A9F002234
:02089B008F1DAF
:10089D00E51D600C851A1E850E1F850D1A851C0E13
:1008AD00E5126003020994E51314607004600302FD
:1008BD0009947F801213AFE51D7BFF60067A0C79DA
:1008CD008680047A0C79951212977FC01213AFE5CA
:1008DD000C450B601CE51AC4540F2430FF1213BBDA
:1008ED00E51A540F2430FF1213BBE4F50BF50C8001
:1008FD0009121291750B00750C017F3A1213BBE5AD
:10090D000EC4540F2430FF1213BBE50E540F2430C8
:10091D00FF1213BBAB1D7D23E4FF80687F80121394
:10092D00AFE51D7BFF60067A0C79A780047A0C7900
:10093D00B81212977FC01213AFE51AC4540F2430AA
:10094D00FF1213BBE51A540F2430FF1213BB7F3A6D
:10095D001213BBE50C450B601CE50EC4540F24307F
:10096D00FF1213BBE50E540F2430FF1213BBE4F539
:10097D000BF50C8009121291750B00750C01AB1D56
:10098D007D597F01120617E51D600C851A0D850E28
:07099D001C851E1A851F0EC8
:0109A4002230
:10000E007F801213AF12135FE50960030203E6E56A
:10001E000AB4070040030203E690002EF828287366
:10002E000200430200B902012F0201A402023902AA
:10003E0002C80203577BFF7A0C79C91212977FC050
:10004E001213AFE50C450B601CE53CC4540F243075
:10005E00FF1213BBE53C540F2430FF1213BBE4F523
:10006E000BF50C8009121291750B00750C017F3A7D
:10007E001213BBE53BC4540F2430FF1213BBE53BF8
:10008E00540F2430FF1213BB7F3A1213BBE53AC450
:10009E00540F2430FF1213BBE53A540F2430FF12D5
:1000AE0013BBE4FB7D237F020203E37BFF7A0C7913
:1000BE00D61212977FC01213AFE53CC4540F2430F2
:1000CE00FF1213BBE53C540F2430FF1213BB7F3AD3
:1000DE001213BBE50C450B601CE53BC4540F2430DA
:1000EE00FF1213BBE53B540F2430FF1213BBE4F594
:1000FE000BF50C8009121291750B00750C017F3AED
:10010E001213BBE53AC4540F2430FF1213BBE53A69
:10011E00540F2430FF1213BBE4FB7D597F01020301
:10012E00E37BFF7A0C79E51212977FC01213AFE5CD
:10013E003CC4540F2430FF1213BBE53C540F243043
:10014E00FF1213BB7F3A1213BBE53BC4540F24308E
:10015E00FF1213BBE53B540F2430FF1213BB7F3A43
:10016E001213BBE50C450B601CE53AC4540F24304A
:10017E00FF1213BBE53A540F2430FF1213BBE4F504
:10018E000BF50C8009121291750B00750C01E4FB36
:10019E007D59FF0203E37BFF7A0C79F41212977FED
:1001AE00C01213AFE50C450B60267F321213BB7FD6
:1001BE00301213BBE540C4540F2430FF1213BBE5BD
:1001CE0040540F2430FF1213BBE4F50BF50C800FD7
:1001DE007BFF7A0D7901121297750B00750C017F5A
:1001EE002D1213BBE53EC4540F2430FF1213BBE592
:1001FE003E540F2430FF1213BB7F2D1213BBE53D6F
:10020E00C4540F2430FF1213BBE53D540F2430FFAE
:10021E001213BB7FCB1213AFE53F54072430FF12EE
:10022E0013BBE4FB7D997F060203E37BFF7A0D7916
:10023E00061212977FC01213AF7F321213BB7F309C
:10024E001213BBE540C4540F2430FF1213BBE5401C
:10025E00540F2430FF1213BB7F2D1213BBE50C4538
:10026E000B601CE53EC4540F2430FF1213BBE53E59
:10027E00540F2430FF1213BBE4F50BF50C8009125A
:10028E001291750B00750C017F2D1213BBE53DC449
:10029E00540F2430FF1213BBE53D540F2430FF12D0
:1002AE0013BB7B017D127F041209A57FCB1213AF06
:1002BE00E53F54072430FF0213BB7BFF7A0D791400
:1002CE001212977FC01213AF7F321213BB7F301200
:1002DE0013BBE540C4540F2430FF1213BBE540544A
:1002EE000F2430FF1213BB7F2D1213BBE53EC454F7
:1002FE000F2430FF1213BBE53E540F2430FF1213B0
:10030E00BB7F2D1213BBE50C450B601CE53DC454A1
:10031E000F2430FF1213BBE53D540F2430FF121390
:10032E00BBE4F50BF50C8009121291750B00750CE0
:10033E00017FCB1213AFE53F54072430FF1213BBDE
:10034E007B017D317F030203E37BFF7A0D7920125F
:10035E0012977FC01213AF7F321213BB7F3012136E
:10036E00BBE540C4540F2430FF1213BBE540540FBD
:10037E002430FF1213BB7F2D1213BBE53EC4540F66
:10038E002430FF1213BBE53E540F2430FF1213BB73
:10039E007F2D1213BBE53DC4540F2430FF1213BB47
:1003AE00E53D540F2430FF1213BBE50C450B6016D0
:1003BE007FCB1213AFE53F54072430FF1213BBE47B
:1003CE00F50BF50C8009121291750B00750C017B63
:0903DE00017D077F051209A5222B
:1003E7001212E31213241213D1D2A4D29120A01215
:1003F7007F0A7E001211DB20A0F3121375120E5D27
:1004070080EB12135F120B97E511602A7F0112131D
:10041700C7EF651070207F021213C7AD0785142040
:10042700AB10AF1B120D73EF6009AD1BAF101212AB
:10043700628003E4F511E50F603A7F021213C7EFFC
:10044700651A70307F011213C7EF650E70261213FD
:100457005F120B97851420AB0EAD1AE4FF120D73D4
:10046700EF600CE4FDAF0E121262E4F50F8005E4B5
:10047700F50FF511E508603A7F021213C7EF650D16
:1004870070307F011213C7EF651C702612135F12BD
:100497000B97851420AB1CAD0D7F01120D73EF6018
:1004A7000C7D01AF1C121262E4F5088005E4F50823
:1004B700F511E4FF1213C7EF60030205537F011222
:1004C70013C7EF60030205537F021213C7EFC4542B
:1004D7000F75F00AA4FFAEF0C006C0077F02121323
:1004E700C7EF540FFDD0E02DFFD0E03400FEC3EF7F
:1004F7009406EE6480948040537F021213C7EFC4C2
:10050700540F75F00AA4FFAEF0C006C0077F0212B1
:1005170013C7EF540FFDD0E02DFFD0E03400FED31A
:10052700EF9416EE6480948050227F021213C7EF77
:10053700C4540F75F00AA4FFC0077F021213C7EF58
:10054700540FFED0E02EFF12116E800DE4FF121340
:10055700C7EF7005121375C291E4F5197F041213E2
:10056700C7E519900D5B93B507127F031213C7E513
:1005770019900D6793B50704C291800BD2910519A5
:10058700E519C3940C40D520A23D7F0A7E001211C5
:10059700DB20A233121375E50F60047F0080027F12
:1005A700018F0FC3E5169432E5159400501420A26D
:1005B700117F0A7E001211DB0516E51670E5051599
:1005C70080E1E4F515F51630A3030203F47F0A7EF4
:1005D700001211DB30A3030203F4121375E5086060
:1005E700047F0080027F018F08C3E5169432E5156A
:1005F7009400501420A3117F0A7E001211DB051608
:10060700E51670E5051580E1E4F515F5160203F426
:1011F4007F801213AF7BFF7A0D792D1212977FC077
:101204001213AFE51414600F146014240270197BD8
:10121400FF7A0D7937800E7BFF7A0D793F80067B4C
:09122400FF7A0D79501212972295
:1010DF001211F420A1417F0A7E001211DB20A137EB
:1010EF001213757F011213AF0514E51475F0038405
:1010FF0085F014C3E5169432E5159400501420A121
:10110F00117F0A7E001211DB0516E51670E5051535
:08111F0080E1E4F515F516224C
:10104A0012089B20A1447F0A7E001211DB20A13ADC
:10105A001213757F011213AF0513E51370020512FF
:10106A00531301751200C3E5169432E51594005026
:10107A001420A1117F0A7E001211DB0516E51670F5
:0B108A00E5051580E1E4F515F51622E0
:100FF70012000E20A14C7F0A7E001211DB20A142B5
:101007001213757F011213AF050AE50A700205096D
:10101700AE09FF7C007D07120F918C098D0AC3E58D
:10102700169432E5159400501420A1117F0A7E0012
:101037001211DB0516E51670E5051580E1E4F515D7
:03104700F5162279
:100E5D007F011213AFE51845177005120FF7802D9E
:100E6D00E518640145177003FF800AE51864024513
:100E7D001770077F0112104A8013E5186403451798
:100E8D0070051210DF8006E4F517F5182220A0C5B5
:100E9D007F0A7E001211DB20A0BB1213757F011299
:100EAD0013AF0518E51870020517AE17FF7C007D0E
:100EBD0005120F918C178D18C3E5169432E5159414
:100ECD0000501420A0117F0A7E001211DB0516E5DB
:0F0EDD001670E5051580E1E4F515F516020E62B5
:100B97007FC01213AFE53CC4540F2430FF1213BBC0
:100BA700E53C540F2430FF1213BB7F3A1213BBE509
:100BB7003BC4540F2430FF1213BBE53B540F2430C2
:100BC700FF1213BB7F3A1213BBE53AC4540F24300C
:100BD700FF1213BBE53A540F2430FF1213BBE50F86
:100BE7007FCB600B1213AF7BFF7A0D79558009120B
:100BF70013AF7BFF7A0C79A4121297E5087FCE60BA
:100C07000B1213AF7BFF7A0D795880091213AF7B54
:100C1700FF7A0C79A41212977F801213AF7F3212DA
:100C270013BB7F301213BBE540C4540F2430FF12AF
:100C370013BBE540540F2430FF1213BB7F2D121353
:100C4700BBE53EC4540F2430FF1213BBE53E540FDF
:100C57002430FF1213BB7F2D1213BBE53DC4540F85
:100C67002430FF1213BBE53D540F2430FF1213BB92
:0F0C77007F8D1213AFE53F54072430FF0213BBEC
:101262007511018D1B8F10E4FFE510540FC3940913
:10127200E510500404FE80032407FE8E10E510C31F
:0E1282009460500280027E008E100FBF02DBCF
:01129000223B
:0913D100D2A0D2A1D2A2D2A32223
:1011B200C2A68B807F017E001211DBD2A77F057E43
:1011C200001211DBC2A7EBC454F0F5807F017E0050
:0911D2001211DBD2A77F057E009B
:1011DB00D3EF9400EE9400400F7DC77C01DCFEDD65
:0811EB00FAEF1F70EB1E80E813
:0111F30022D9
:0C13AF00AB07C2A7C2A51211B2C2A72250
:0C13BB00AB07C2A7D2A51211B2C2A72234
:101324007F321213AF7F281213AF7F0C1213AF7FDB
:0E133400061213AF7F011213AF7F800213AFBA
:0E13870081838587898B8D80828486888A8CFD
:09115900073A000000011007171D
:10122D00C2B500C2B600D2B500E4FEEF1392B4EF22
:10123D00C313FFD2B600C2B6000EBE08EEE4FEED3B
:10124D001392B4EDC313FDD2B600C2B6000EBE08A4
:04125D00EEC2B50028
:01126100226A
:10109500C2B500C2B600D2B500E4FDEF1392B4EFBD
:1010A500C313FFD2B600C2B6000DBD08EE00E4FDC5
:1010B500A2B4E433FFC43333335480FCEEC3134C82
:1010C500FED2B600C2B6000DBD08E5C2B500D2B667
:0910D50000C2B400D2B400AF0661
:0110DE0022EF
:1012E300E4FD7F8E12122DE4FCEC90138E93FF74B9
:1012F3003A2CF8E6FD12122D0CBC07ED7D807F8E93
:0313030002122DA6
:10134200AC05AB07E4FD7F8E12122DEB90138E934A
:0D135200FFAD0412122D7D807F8E02122D42
:0A13C700EF90138793FF1210952298
:10135F00E4FBEB90138793FF121095743A2BF8A6CA
:05136F00070BBB07EDB8
:011374002256
:10075B002020200041320041310020202020202089
:10076B002020202020202020202000F2F3F5F5F679
:10077B00F7F8F9F9FAFAFBFBFCFCFCFDFDFDFDFEBD
:10078B00FEFEFEFEFEFEFF42C117B6D0D1B621E142
:10079B008CD868E95B8FEE446BB4F42D4777A2B627
:1007AB00DAFA16050202030201050201010304062F
:1007BB000202010302050204050202010201020208
:1007CB0001030101020201010201020204050202FE
:1007DB0003020105020101030307020106020201E4
:1007EB0003020502040502020202010302010402D4
:1007FB0003070101010204010302070202060202C0
:10080B0005020203020202020103020103020105B7
:10081B0002020502020502020502020202010302A4
:10082B000103020401030207020206020105020191
:10083B000502020302020202010302010502020584
:10084B00020205020206020207020201030501036E
:10085B000706010107010101020307010101020261
:10086B00030202070105030102060103050101064C
:10087B000102010202050105030102040103030148
:10088B000104010101020101020203010401020240
:0B116200022E000101360002370000E1
:0612BA007BFF7A07795B5F
:1012C0008B2B8A2C892DAB2BAA2CA92D120F78FFE2
:1012D00060101213BB7401252DF52DE4352CF52C6F
:0312E00080E42285
:03000B0002139548
:0D139500C28CB2A485338C85358AD28C328F
:020AA0008F25A0
:100AA200E52F452E7003020B3DE5367FC0604212F2
:100AB20013AFE534C4540F2430FF1213BBE5345492
:100AC2000F2430FF1213BB7F3A1213BBE531C4541B
:100AD2000F2430FF1213BBE531540F2430FF1213E1
:100AE200BB1212BA7FCE1213AF7BFF7A07795F80F7
:100AF200401213AFE530C4540F2430FF1213BBE58C
:100B020030540F2430FF1213BB7F3A1213BBE53966
:100B1200C4540F2430FF1213BBE539540F2430FFA5
:100B22001213BB1212BA7FCB1213AF7BFF7A077973
:100B3200621212C0E4F52EF52F80147FC01213AF9B
:100B42007BFF7A0779651212C0752E00752F01E4BA
:100B5200F526E526C395255039E4F52AF529F52829
:100B6200F527E47FA07E0FFDFCAB2AAA29A928A8BD
:100B720027C3120FE65017E52A2401F52AE4352986
:100B8200F529E43528F528E43527F52780D405260C
:040B920080C0C28CD1
:010B9600223C
:0D13A20085338C85358AD28CAF32020AA0CB
:100D7300758901D2A9D2AF8F36E53660068D348BE3
:100D83003180048D308B39C291E4F5240524E4F5D8
:100D930022753201E5327003020E4DE520146029FD
:100DA30014604824027064E5229007AF9375F0073E
:100DB300A4FFE5229007AE932F14F521E5229007B7
:100DC300B093F5327523548042E52290085D937504
:100DD300F007A4FFE52290085C932F14F521E52288
:100DE30090085E93F53275233F8020E52290080337
:100DF3009375F007A4FFE522900802932F14F521C1
:100E0300E52290080493F53275235AE5219007767D
:100E130093F533E52190079293F53574032522F575
:100E230022B2911213A2E522C395234003E4F532C3
:100E330030A103020D977F0A7E001211DB30A1035C
:100E4300020D97D2A4C28C7F0022E52464036003C1
:090E5300020D8FD2A4C28C7F01B4
:010E5C002273
:100EF8000203E7E493A3F8E493A34003F68001F226
:100F080008DFF48029E493A3F85407240CC8C333FA
:100F1800C4540F4420C8834004F456800146F6DFC9
:100F2800E4800B0102040810204080901127E47E21
:100F3800019360BCA3FF543F30E509541FFEE493BE
:100F4800A360010ECF54C025E060A840B8E493A385
:100F5800FAE493A3F8E493A3C8C582C8CAC583CAB0
:100F6800F0A3C8C582C8CAC583CADFE9DEE780BE68
:01116D000081
:100F7800BB010689828A83E0225002E722BBFE0277
:090F8800E32289828A83E49322AA
:100F9100BC000BBE0029EF8DF084FFADF022E4CC44
:100FA100F875F008EF2FFFEE33FEEC33FCEE9DEC0D
:100FB100984005FCEE9DFE0FD5F0E9E4CEFD22ED53
:100FC100F8F5F0EE8420D21CFEADF075F008EF2F9D
:100FD100FFED33FD4007985006D5F0F222C398FD8E
:050FE1000FD5F0EA222B
:100FE600EB9FF5F0EA9E42F0E99D42F0E89C45F061
:010FF60022D8
:00000001FF
